:100000000C94C3030C94FB030C94FB030C94FB03B0
:100010000C94FB030C94FB030C94FB030C94FB0368
:100020000C94FB030C94FB030C94192B0C94D52A11
:100030000C94162C0C94FB030C94FB030C94FB0304
:100040000C94FB030C94FB030C94FB030C94FB0338
:100050000C94FB030C94F22B0C94FB030C94FB0309
:100060000C94FB030C94FB030C94FB030C94FB0318
:100070000C94FB030C94FB030C94FB030C94FB0308
:100080000C94FB030C94FB030C94FB030C94FB03F8
:100090000C94FB030C94FB030C94FB030C94FB03E8
:1000A0000C94FB030C94FB030C94FB030501090265
:1000B000A10185020901A100050919012905150001
:1000C00025019505750181029501750381010501E1
:1000D000093009311581257F950275088106093897
:1000E0001581257F950175088106050C0A380215D2
:1000F00081257F950175088106C0C005010980A191
:1001000001850319012AB700150126B7009501756D
:10011000108100C0050C0901A101850419012AA064
:1001200002150126A002950175108100C00660FF2E
:100130000961A1010962150026FF0095207508815B
:10014000020963150026FF00952075089102C0057D
:10015000010906A101050719E029E7150025019508
:1001600008750181029501750881010507190029AB
:10017000FF150026FF009506750881000508190186
:100180002905950575019102950175039101C0003E
:10019000000000000000000000000000000000005F
:1001A000000000000000000000000000000000004F
:1001B0000000007E0F00D4FFFFFFC70000007800A2
:1001C000000000000000002A2B28000000000000B2
:1001D0000000000000000000000029000000002CCA
:1001E0001E3420212224342627252E362D37382769
:1001F0001E1F202122232425263333362E37381F75
:100200000405060708090A0B0C0D0E0F1011121336
:100210001415161718191A1B1C1D2F3130232D35D4
:100220000405060708090A0B0C0D0E0F1011121316
:100230001415161718191A1B1C1D2F3130354C7840
:100240003C1EFD377A585A000004E6D6B446020038
:10025000210116000000742FE5A3E0033D01425D7B
:10026000003D8889C65436C3174FE4E4F11CD57CA1
:10027000D3AFCF382F37919FB7EED57169896F58BB
:10028000CA70912B3B4C9E1C0AF4B84DFAA9B88653
:10029000601E07F5B980A1029CDDC36EAFB8FEC930
:1002A000F8F48A4AC06BDA54BDE96CA33F628A8BCA
:1002B000D2FFC12FF636D63A1E054A92352C161FAC
:1002C000C0C414803DAE3160EF86E33E91636DB7EC
:1002D0002859BF75A5EB6B3214511502BEEF81E7AB
:1002E0002572B417F59FA83675A36978F2CB805BA9
:1002F00066638CC1CAF6CDE9DE0217D8B77F5F5BB3
:10030000DAEAE765FB8FCCB04201F55D1336FCD02D
:100310007B90BF751143D5CF838C9298B446443AF5
:10032000B2EE1F028BD7F99FCDAB0788FFDC832B82
:10033000B930C6F46C7519E00187C94213F5C7439B
:1003400013E0FC2B21715CA588AE8959EFA74B2BDC
:10035000E0CC414D3C1AC04F87A006927DCC378E31
:10036000FED208AEA73C834AE0B069D31CF5F77E05
:10037000A63E3D65204802E2EF9E95C803C5BA64DB
:10038000073EDCC124063F2D433C519175269B1E40
:100390006EB142AD140388C684E106124E125E04AB
:1003A000BC4CF40000003BB99B4D2CAF4A600001EF
:1003B000DE02BE060000F9BF8168B1C467FB02001F
:1003C00000000004595A000101010101010101016D
:1003D00002020202020202020203030303030303F6
:1003E00003040404040404040505050505060606C3
:1003F0000606070707070708080808090909090A80
:100400000A0A0B0B0B0C0C0C0D0D0D0E0E0E0F0F24
:100410000F101011111112121313141415151616B2
:100420001717181819191A1A1B1B1C1D1D1E1E1F21
:100430002020212222232424252626272829292A70
:100440002B2C2D2D2E2F3031323233343536373898
:10045000393A3B3C3D3E3F40414243444546474894
:10046000494A4C4D4E4F50515354555658595A5B6A
:100470005D5E5F616264656668696B6C6D6F70720A
:10048000737577787A7B7D7E8082838587888A8C76
:100490008E8F91939596989A9C9EA0A2A3A5A7A9AA
:1004A000ABADAFB1B3B5B7BABCBEC0C2C4C6C9CBA1
:1004B000CDCFD1D4D6D8DBDDDFE2E4E7E9EBEEF057
:1004C000F3F5F8FAFDFF14001A00080015001700F4
:1004D0001C00180004001600070009000A000B00A9
:1004E0000D001D001B000600190005001100100082
:1004F000E000E200E3002A002C00E600E7000C0028
:10050000120013003600E400000000000E000F008F
:100510002800370000000000000001000100010079
:1005200001000100010001000100010001000100C3
:1005300001000100010001000100010001000100B3
:1005400001000100010001000100010001000100A3
:100550000100010001000100010001000000000095
:100560000100010001000100000000000000010086
:100570000100010001000100010001000100010073
:100580000100010001000100010001000100010063
:100590000100010001000100010001000100010053
:1005A0000100010001000100010001000100010043
:1005B0000000000001000100010001000000000037
:1005C0000000010001000100010001000100010024
:1005D0000100010001000100010001000100010013
:1005E0000100010001000100010001000100010003
:1005F00001000100010001000100010001000100F3
:1006000001000100000000000100010001000100E4
:1006100000000000000001000100B803000002001B
:100620000200B403000003000100B903000004004D
:1006300002009E03750605000100BA0300000600D3
:100640000200A003000007000200B603000008003B
:100650000100BB03000009000200A20350060A00CB
:100660000200A40350060B000200A60350060C0073
:100670000200A80350060D000200AA0350060E0057
:100680000200AC0350060F000200AE03500610003B
:100690000200B003500611000200B203500612001F
:1006A0000200BC03000013000200BE03000014009F
:1006B0000100C003000009025B00030100A0FA0969
:1006C0000400000103010100092111010001224081
:1006D000000705810308000109040100020300006E
:1006E00000092111010001222200070582032000D8
:1006F00001070503032000010904020001030000B3
:100700000009211101000122810007058403200056
:100710000112010002000000083174010001000113
:100720000203011C037600690061006C003A006658
:1007300000360034006300320062003300630000C2
:10074000001A03710061007A0020006B00650079D7
:100750000062006F006100720064000000220377F5
:10076000006800790064006F00620065006100723B
:100770000073006500780070006C006F006400007A
:1007800000040309040011241FBECFEFDAE0DEBF2E
:10079000CDBF04B603FE18C08091A3049091A404B9
:1007A000A091A504B091A6048730904BA740B04B10
:1007B00059F41092A3041092A4041092A50410926C
:1007C000A604E0E0F8E3099511E0A0E0B1E0EAE377
:1007D000FAE602C005900D92A637B107D9F724E0DA
:1007E000A6E7B1E001C01D92A33AB207E1F70E946B
:1007F0003D2C0C94F7340C940000E8EDF0E080817F
:100800008E7F80831092E2001092DA001092E10055
:10081000A0EEB0E08C9181608C9380818F77808393
:1008200019BCA7EDB0E08C918E7F8C9380818F7E78
:1008300080831092850408952091E4003091E500B2
:1008400095E6A9012091EC00822F817020FF06C05F
:100850008091E80080FF06C080E008952091E800C4
:1008600022FD1AC080919B04882389F0853089F08D
:100870008091EB0085FD0FC02091E4003091E500F0
:1008800042175307F9F29150E1F684E0089582E0AF
:10089000089583E0089581E00895EF92FF920F9309
:1008A0001F93CF937C018B010E941C04C82F8111E0
:1008B00017C08091E80085FD0BC08091E8008E771D
:1008C0008093E8000E941C04882399F3C82F08C075
:1008D000F70181917F018093F1000150110949F7DF
:1008E0008C2FCF911F910F91FF90EF900895CF9390
:1008F000FC0180919B04843001F5C091E900CF7028
:100900002091EC00922F917020FD90E8C92B82E09D
:100910008093E9008091E80080FF0CC050E040E047
:1009200060E270E0CF010E944D048091E8008E7774
:100930008093E800CF70C093E900CF910895809133
:10094000930487FF13C08091E80082FF06C0809166
:10095000E8008B778093E80004C080919B048111AC
:10096000F2CF089580919B048823D9F38091E80009
:1009700080FFF8CF8091E8008E77ECCF982F90938E
:10098000E900242F762F50E0891731F07091EC00A8
:100990002091ED005091F00021FD07C09F5F97303E
:1009A00071F78093E90081E008953091EB003E7F7C
:1009B0003093EB003091ED003D7F3093ED003091AE
:1009C000EB0031603093EB007093EC002093ED006E
:1009D0005093F0002091EE0027FDE0CF80E00895D5
:1009E000CF92DF92EF92FF920F931F93CF93DF93FB
:1009F000C8EDD0E088818F7E8883E7EDF0E08081CC
:100A00008160808384E082BF81E080938504888157
:100A10008E7F888302EE10E0F80110821092DA00D7
:100A200081EEC82ED12CF601108288818F778883C1
:100A300088818068888388818F7D888319BC109223
:100A40009B0410929204109291041092900490EEE4
:100A5000E92EF12CF70180818B7F80838881816072
:100A6000888342E060E080E00E94BE04F60180815D
:100A70008E7F8083F801808181608083808188609F
:100A80008083F70180818E7F808388818061888365
:100A9000DF91CF911F910F91FF90EF90DF90CF905A
:100AA0000895FC018091990490919A048617970704
:100AB000A0F06115710529F49091E8009E7790935C
:100AC000E80090E06115710551F4911108C0809122
:100AD000E80082FF34C080E00895BC01F2CF80912D
:100AE0009B048823C1F18530C1F18091E80083FD2A
:100AF00030C08091E80082FDEACF8091E80080FF5D
:100B0000E1CF8091F3002091F200382F611571053B
:100B100019F02830310558F091E02830310509F0FE
:100B200090E02091E8002E772093E800CBCF8191D0
:100B30008093F100615071092F5F3F4FE7CF8091A3
:100B40009B04882341F0853041F08091E80083FFC9
:100B5000BECF81E0089582E0089583E0089508956E
:100B60008091870408959C014FB7F89480917E048A
:100B700090917F04A0918004B09181044FBF821BAB
:100B8000930B08952FB7F89480917E0490917F0481
:100B9000A0918004B09181042FBF089520917B041F
:100BA00030917C042817390771F090937C0480936E
:100BB0007B04E0917904F0917A04309721F000846D
:100BC000F185E02D099408952091770430917804FF
:100BD0002817390771F09093780480937704E09197
:100BE0007904F0917A04309721F00680F781E02DA6
:100BF00009940895E0917904F0917A04309721F0F6
:100C00000190F081E02D099480E00895452B39F0A2
:100C1000682381E06F3F09F080E08170089581E0F2
:100C2000FCCFDC0160919A0380919B03962F89137E
:100C300001C00895292F30E0F901EE0FFF1FEE5695
:100C4000FC4F408151814A175B07A1F487E08A9FDE
:100C5000A0018B9F500D1124465A5C4F81E0FA0190
:100C600084839613E6CF2F5F3F4F23703327209363
:100C70009A0308952F5F3F4F922F9370D8CF109211
:100C8000F7021092F602EAE5F3E08581811102C0D5
:100C900014821682379683E0E239F807B1F7089597
:100CA000EEE9F3E0848195812AE030E0B9010E9409
:100CB0002F3460931601868180931501828580937D
:100CC000140184858093130186859785B9010E945C
:100CD0002F3460931201808980931101828980935F
:100CE0001001848980930F01089580919E03909153
:100CF0009F0390931801809317010895FA018111C1
:100D000001C0FB010994089580919E04982F9E7F55
:100D100029F48170826080939E0408958A30E8F3FC
:100D200081708860F8CFAF92BF92DF92EF92FF920E
:100D30000F931F93CF93DF93082F162FE901E42F12
:100D4000F0E0EA53FC4F611110C0E4915E2F4E2F8A
:100D50004983E8835A83DF91CF911F910F91FF90D0
:100D6000EF90DF90BF90AF900895E62EF12C449164
:100D7000D42EE42FF0E026E0829FC00111242FEF53
:100D800030E0B9010E942F34802F90E0880F991F26
:100D900055E5569FD001579FB00D11248A1B9B0B20
:100DA000982F990F890F5901AE18BF08AE9ED00138
:100DB000AF9EB00DBE9EB00D11245B2F189F800119
:100DC0001124012F11275901A01AB10AAE9E8001EA
:100DD000AF9E100DBE9E100D11245901A81AB10826
:100DE000AE9CC001AF9C900DBE9C900D1124892F2C
:100DF0009927281B390B2E9FC0012F9F900D3E9FD6
:100E0000900D1124E92F62307105A1F050F46115A5
:100E1000710509F49DCF6130710581F0EB2F512FE1
:100E200097CF6430710569F080F06630710509F480
:100E30008FCFF4CFE42F4B2F592F8ACFE42F412FA0
:100E400087CFEB2F542F492F83CF4B2F5D2DE12FD1
:100E50007FCF0E94C2059C0190911E0280911F02CB
:100E6000982B21F030931B0220931A0290912002BC
:100E700080912102982B21F03093190220931802BF
:100E8000E0917904F0917A04309749F082E0809300
:100E90001C020480F581E02D8CE192E00994089514
:100EA00090911E02803F59F480911F0287FF0DC070
:100EB00010921F0291110BC01092160208C0813FC0
:100EC00081F480911F0218169CF3992381F0809180
:100ED000200290912102892B09F064C01092150222
:100EE0000895823F49F497FFF0CF10921E0280913F
:100EF0001F028111ECCFE0CF833F19F41916ACF338
:100F0000E4CF20912002893F29F41216F4F61092C2
:100F10002002DBCF8A3F19F427FFD7CFF8CF2091EB
:100F200021028B3F29F427FFD0CF10922102CDCF91
:100F30008C3F19F41216CCF3C8CF843F31F4809162
:100F40001D028E7F80931D02C0CF853F21F48091CA
:100F50001D028D7FF7CF863F21F480911D028B7F8C
:100F6000F1CF873F21F480911D02877FEBCF883F2F
:100F700021F480911D028F7EE5CF8D3F31F4809169
:100F800017028E7F80931702A0CF8E3F21F48091AD
:100F900017028D7FF7CF8F3F09F097CF809117020F
:100FA0008B7FF0CF08958091170280FF0CC0609175
:100FB000100170E0759567957595679561157105D8
:100FC00049F1862F089581FF06C06091100170E0FD
:100FD00075956795F3CF6091100182FD0BC09091DC
:100FE00015029923A1F060910F01809110019617CD
:100FF00038F0682F70E06038710500F38FE70895CE
:10100000899FC001112470E00E944334F4CF61E055
:1010100070E0D7CF81E00895809117026091A60318
:101020007091A70380FF16C020911401269FC00174
:10103000279F900D1124BC0176956795769567954D
:101040006038710508F043C06115710509F441C0AD
:10105000862F089581FF0BC020911401269FC001A7
:10106000279F900D1124BC0176956795E9CF82FFEB
:1010700009C0809114019B01829FB001839F700D74
:101080001124DECF209116022223D1F29091130178
:1010900080911401482F50E0291748F0CB01849F1C
:1010A000B001859F700D949F700D1124C9CF289FAA
:1010B00090011124269FA001279F500D369F500DAF
:1010C0001124692F70E0CA010E942F34B9CF8FE735
:1010D000089581E00895803F31F40E940C088195C5
:1010E00080931F020895813F19F40E940C08F8CFE5
:1010F000823F31F40E940C08819580931E0208956E
:10110000833F19F40E940C08F8CF893F29F40E940C
:10111000D3078093200208958A3F21F40E94D307C9
:101120008195F7CF8B3F31F40E94D307819580934F
:10113000210208958C3F19F40E94D307F8CF843F11
:1011400031F480911D02816080931D020895853FD6
:1011500021F480911D028260F7CF863F21F48091B7
:101160001D028460F1CF873F21F480911D028860C9
:10117000EBCF883F21F480911D028061E5CF8D3F48
:1011800031F48091170281608093170208958E3F99
:1011900021F4809117028260F7CF8F3FB9F78091D9
:1011A00017028460F1CF80E00895F894E82FE2956B
:1011B000EF70F0E031A1282F2F7081E090E001C0A6
:1011C000880F2A95EAF7982F9095932391A392A1DF
:1011D000892B82A3789408959091F80192FF06C01C
:1011E000282F28712830F9F4877F846093FF06C088
:1011F000282F28712831F1F4877E84612091F9012C
:1012000020FF06C0382F38713830D9F4877F8160CD
:1012100021FF06C0282F28712831D1F4877E8161F3
:1012200094FD877E0895282F24712430F9F68B7F52
:101230008860DCCF282F2471243101F78B7E8861F0
:10124000DDCF382F3171313019F78E7F8860E0CFD4
:10125000282F2171213121F78E7E8861E1CFCF9334
:10126000DF93EC0182389105A9F1D8F5813391051E
:1012700009F496C048F58932910509F48AC08A9725
:1012800009F495C0C11521E5D20708F0BCC0C1150D
:1012900030E5D30708F014C1C83ED10508F09CC062
:1012A000C03ED10560F5C83AD10508F087C0C53AFF
:1012B000D10508F0FDC0C130D10509F12097F9F042
:1012C000C430D105E0F440C08533910509F45AC01B
:1012D000C997C1F68091F801837089F0C0EED0E023
:1012E0000EC0833E910599F170F4803E910501F1A5
:1012F000823E910539F68091F80182FD21C0CE0130
:10130000DF91CF910895863E910561F1873E910569
:1013100071F1843E910509F0B5CF8091F90181FF0B
:10132000EECF8091F801C7EED0E084FD0DC0E7CF8D
:101330008091F80180FD12C19091F90190FFDFCFFB
:10134000C3EED0E084FFDBCFD0E0C0E0D8CF809107
:10135000F80182FD06C19091F90190FDBFCF84FF95
:10136000CECFF2CF8091F80183FDDDCFC8CF809141
:10137000F80183FDF9C09091F90191FFF0CFC4EE1F
:10138000D0E0BDCF8091F80185FFB9CFC9E2D0E0B0
:10139000B6CF8091F80185FFB2CFC5E3D0E0AFCFE3
:1013A0008091F80186FFABCFCAE2D0E0A8CF809150
:1013B000F80186FFA4CFC1E3D0E0A1CFCF3BD10598
:1013C00018F6C85AD0E0CC0FDD1FC95DDE4F09907A
:1013D000D881C02DD46493CFC11540E2D40758F40E
:1013E000C11581E0D80708F08ACFC03FD10508F4C5
:1013F000ABCFD06584CFC11590E4D90708F4A4CF52
:10140000DF70D06A7CCFC11525E5D20700F5C11584
:1014100034E5D30708F08AC0C11543E5D40708F0C6
:1014200071C0C11582E5D80708F467C0CE0183708A
:10143000992721E030E002C0220F331F8A95E2F79E
:10144000C695C69580E2C89FE001112452C0C1151F
:1014500099E5D907A8F4C11528E5D20708F06BC0B3
:10146000C11536E5D30708F06FCF8C2F0E94EC082A
:10147000C82FD0E0DC2FCC27CC27DF71D0623FCF44
:10148000C1154AE5D40708F45BC0CE01905681151A
:10149000904208F059CF8D2F8F710E94EC0890E098
:1014A000982F882788279F719C012C2BE901E6CF74
:1014B000C55AD0E0CC5DDE4FC881D0E0D0641FCFEC
:1014C000CE01E4E096958795EA95E1F783702C2F9D
:1014D00026952695237040E2249F90011124382BF5
:1014E0008C2F8370C1E0D0E002C0CC0FDD1F8A9545
:1014F000E2F7C22BD32BDC6802CFDC2FCC27C16FE5
:10150000D06AFDCECE018370992721E030E002C081
:10151000220F331F8A95E2F7C695C69590E2C99FC0
:10152000E0011124C22BD32BDA68E9CEDC2FCC27C3
:10153000C46FD06AE4CEDC2FCC27C06FD06ADFCE78
:101540008C2F8F700E94EC0834E0D695C7953A95A1
:10155000E1F7CF709C2FEC01D069D1CEC9E3D0E088
:10156000CECEC2EED0E0CBCEC6EED0E0C8CE8091DB
:10157000ED01882331F01092ED011092EC011092F0
:10158000EB010895CF93C82F8091F90182FD0CC023
:101590008091ED018C1741F00E94C2059093EC01FF
:1015A0008093EB01C093ED01CF91089580959091C8
:1015B0009D04982390939D04089580959091D10265
:1015C00098239093D10208959091D102892B809312
:1015D000D10208951092E2011092E1011092E0010F
:1015E00008958091A0039091A103892B89F00E9416
:1015F000C2052091EB013091EC01AC01421B530B71
:1016000081E02091A0033091A1034217530708F411
:1016100080E0817008958091DF0181111092DF01D7
:101620000895EAE7F1E09191891303C0DF01119772
:101630001C9291E0E038F907B1F70895AAE7B1E00C
:10164000EFEF90E02D91821751F0EF3F19F4211147
:1016500001C0E92F9F5F9630A9F7EF3F09F4089585
:101660000E2E000CFF0BE858FE4F82830895209148
:10167000DE0190919D01291302C080E0089530E0C1
:10168000F90153E0EE0FFF1F5A95E1F7E256FE4FC6
:101690005181561306C05081581303C05281541310
:1016A00004C02F5F3F4F2770E6CF81E008958091FF
:1016B000DE0190919D01981301C008958F5F87709E
:1016C000FACF9E3F49F1E82F27E0929FE00D1124C9
:1016D0009E2F9770E695E695E69583E0E89FF001EA
:1016E0001124ED57FE4F50E040E080E0219130E0C2
:1016F000092E02C0369527950A94E2F72170332708
:10170000042E01C0220F0A94EAF7822B4F5F5F4F2D
:101710004330510559F7089580E008959E3F69F1DF
:10172000E82F27E0929FE00D11248E2F877041E073
:1017300001C0440F8A95EAF7E695E695E69583E0C1
:10174000E89FF0011124ED57FE4F30E020E070E0FB
:101750005191DF011197CB01022E02C0969587951A
:101760000A94E2F7817081958527842385278C93DD
:101770002F5F3F4F2330310559F7089592959F70A1
:10178000963091F058F4925F9F70923058F4803FF9
:1017900019F030F4883E30F481E008959A5FF4CF78
:1017A000843FD1F380E00895883EB0F3813FD1F7C4
:1017B000F3CF9C013A9521153F4150F5FC01EE27EE
:1017C000F170BC0166277270AC01442754709C0113
:1017D0002227387094FF0EC080E1EF2B09F480E0DF
:1017E000672B09F08062452B09F08064232B89F078
:1017F0008068089581E0EF2B09F480E0672B09F001
:101800008260452B09F08460232B19F088600895CD
:1018100080E008958093820470938404609383042D
:1018200080919B048430F9F48093E9008FEF9091CC
:10183000E800815095FD06C095ED9A95F1F70000FE
:101840008111F5CF8091E80085FF0DC050E040E0A8
:1018500063E070E082E894E00E944D048091E8002B
:101860008E778093E8000895BC0184E00C940A0C04
:10187000BC0183E00C940A0C9C0184E08093E90095
:101880009FEF8091E800915085FD06C085ED8A9517
:10189000F1F700009111F5CF8091E80085FF0CC0B1
:1018A00050E040E066E070E0C9010E944D04809184
:1018B000E8008E778093E8000895CF93DF93EC01E2
:1018C00081E08093E9008FEF9091E800815095FDD1
:1018D00006C095ED9A95F1F700008111F5CF809142
:1018E000E80085FF14C050E040E068E070E0CE0101
:1018F0000E944D048091E8008E778093E80088E094
:10190000FE01A8E8B4E001900D928A95E1F7DF911D
:10191000CF91089581E08093E00080E28093D80029
:101920001092C9008FE19EE40197F1F700C000001A
:1019300087E090EBDC018093A3049093A404A09330
:10194000A504B093A60488E19CE00FB6F894A8958E
:10195000809360000FBE90936000FFCF019708F462
:101960000895EFE9FFE03197F1F700C00000F6CFEE
:1019700080919E0480FD0AC0EAE2F2E011821082AA
:101980001282339652E0E936F507C1F7879A31B3F0
:101990003F7721B320684FB7F8948AE292E0FC01C8
:1019A0005191CF0168E021BB000000C057FF31BB5F
:1019B000550F000000C000C000C031BB00C06A95D8
:1019C00091F7F2E089369F0751F74FBF8FE594E01A
:1019D0000197F1F700C00000089590919E0490FFD8
:1019E0000CC0EAE2F2E0818360834283339692E0A6
:1019F000E936F907C1F70C94B80C08950F931F93BB
:101A0000CF93DF9300D00F92CDB7DEB78C018091DA
:101A10009E0480FF10C09E012F5F3F4F4091A104A4
:101A20006091A004F80184810E9493064B81698132
:101A30008A810E94ED0CF80184818F5F84830F906E
:101A40000F900F90DF91CF911F910F9108950F93F9
:101A50001F93CF93DF930EE913E0C7E7D1E0CE01E8
:101A60000E94A734F80181938F012196CB39F1E0D0
:101A7000DF07A9F7CCE1D6E0FE01859194910097AC
:101A800011F0FC0109952896F6E0CC3BDF07A1F7A1
:101A9000DF91CF911F910F9108950F931F93CF93D3
:101AA000DF93843030F5663020F5473010F5C42FD1
:101AB000D0E0CC0FDD1F2EE0629FC00DD11D1124A0
:101AC00034E5839FC00DD11D1124CE0187960E945D
:101AD000A734082F10E0102F0027CE0188960E940F
:101AE000A7349801282BC901DF91CF911F910F9145
:101AF000089590E080E0F8CF462F2091CF023091FA
:101B0000D002232B91F47E3F39F46E3F71F4809123
:101B1000CD029091CE020895843038F4763028F4C6
:101B2000673018F4672F0C944D0D90E080E0089515
:101B3000CF92DF92FF920F931F93CF93DF936C01AD
:101B400000919C048091EE01082BC7E0D0E010E0EA
:101B5000FC2EC8010C2E02C0959587950A94E2F7D9
:101B600080FD0CC02197A0F7F12C8F2DDF91CF9134
:101B70001F910F91FF90DF90CF900895B6018C2FA9
:101B80000E947C0D0E942F09019761F3EECFCF9345
:101B9000DF93EC010E94980DBE010E947C0DDF9145
:101BA000CF910C942F09FC0186819781009721F039
:101BB0000E942F090C94BE0B808191810E94C70D59
:101BC000F9CF1F93CF93DF9300D000D00F92CDB702
:101BD000DEB749835A8389819A816623B9F022232B
:101BE000A9F00E94980D182F682F89819A810E9470
:101BF0008E0B69817A81812F0F900F900F900F903B
:101C00000F90DF91CF911F910C947C0D0E94610B7E
:101C1000182FEFCFFC01262F86819781009739F48A
:101C2000408151816281738184810C94E10D08951A
:101C300083E290E00E94A734883989F484E290E03E
:101C40000E94A7348F3E59F485E290E00E94A734A9
:101C500091E08B3E09F090E0892F8170089580E03B
:101C6000FCCFCF9384E090E00E94A734C82F82E29B
:101C700090E00E94A734982F8C2FCF9108950F9356
:101C80001F93CF93DF930EE913E0C7E7D1E0CE01B6
:101C90000E94A734F80161918F01681719F0CE01F5
:101CA0000E94BB342196CB39F1E0DF0781F7DF9149
:101CB000CF911F910F910895EEE9F3E0128E138EEC
:101CC0008FEA90E09183808325E0248F88E893E178
:101CD000938382838AE090E09583848344E150E09B
:101CE0005783468368E070E07187608793878287B7
:101CF0004EE150E0558744879787868740E550E05E
:101D0000518B408B738B628B68E270E0758B648BB8
:101D100062E370E0778B668B68EC70E0718F608FA8
:101D2000158E978F868F51A340A322A30E943F0E4A
:101D30000C94270DCF93DF93CBE3D2E060E0CE018C
:101D40000E94BB342196C11584E0D807B9F7DF9112
:101D5000CF9108950F931F93CF93DF938901843020
:101D600048F5663038F5473028F521153C4531F403
:101D70002091CB023091CC02232BE1F0C42FD0E094
:101D8000CC0FDD1F9EE0699FC00DD11D112494E58D
:101D9000899FC00DD11D1124612FCE0187960E940D
:101DA000BB34602FCE018896DF91CF911F910F91A8
:101DB0000C94BB34DF91CF911F910F910895CF9375
:101DC000C82F6FEF811168E983E290E00E94BB3475
:101DD0006FEFC1116FEE84E290E00E94BB346FEFB1
:101DE000C1116BEE85E290E0CF910C94BB347F92F1
:101DF0008F929F92AF92BF92CF92DF92EF92FF921B
:101E00000F931F93CF93DF93CDB7DEB764970FB6D1
:101E1000F894DEBF0FBECDBFA090CB02B090CC0235
:101E200081E090E09093CC028093CB0286ECC82EA8
:101E300084E0D82E00E0760110E015C0F401259171
:101E40003491472D612F802F0E94AA0E82E0880EC8
:101E5000911C7394E7E07E12F1CFFEE0EF0EF11CCF
:101E60001F5F163019F04701712CE8CF0F5F84E532
:101E7000C80ED11C0430F9F60E945C0E1A82198239
:101E80001C821B821E821D8218861F8288EC90E0B5
:101E90009A8789870BE911E04AE050E0B801CE014A
:101EA00001960E94DF34065F1F4F0B3EE1E01E07E4
:101EB00099F77E01FBE0EF0EF11C8AE0F701119229
:101EC0008A95E9F74AE050E0B801C7010E94DF3483
:101ED000065F1F4F0B33F2E01F07A1F7B092CC0251
:101EE000A092CB0264960FB6F894DEBF0FBECDBFB2
:101EF000DF91CF911F910F91FF90EF90DF90CF90E6
:101F0000BF90AF909F908F907F90089580E00E9447
:101F1000DF0E60E086E290E00E94BB340E94F70E84
:101F20000E949A0E81E00C94DF0E9B01883070F4C1
:101F30009AE0899FB001112465567E4F4AE050E037
:101F4000C9010E94973490E080E008958FEF9FEFE1
:101F500008958F929F92AF92BF92CF92DF92EF92AD
:101F6000FF920F931F93CF93DF93CDB7DEB72A97DE
:101F70000FB6F894DEBF0FBECDBF07EC13E0F12C17
:101F8000E12C84E2C82E8AE2D82E9EE4A92E9AE2A1
:101F9000B92E2DE8822E29E2922EF801D182C0823C
:101FA000B382A28295828482F58AE48ABE016F5F41
:101FB0007F4F8E2D0E94950F892B29F489859A8554
:101FC000F801938B828BFFEFEF1AFF0A0A5E1F4F17
:101FD00088E0E816F10409F72A960FB6F894DEBFF8
:101FE0000FBECDBFDF91CF911F910F91FF90EF906A
:101FF000DF90CF90BF90AF909F908F900895CF9239
:10200000DF92EF92FF920F931F93CF93DF93CDB7A1
:10201000DEB72A970FB6F894DEBF0FBECDBFEBE751
:10202000F2E080E5DF011D928A95E9F7EAE5F3E049
:1020300088E3DF011D928A95E9F78BE7C82E82E0DD
:10204000D82E7F010BEE11E0F701D182C0824AE069
:1020500050E0B801CE0101960E94973488E0FE015D
:102060003196D60101900D928A95E1F789859A857E
:10207000D70113969C938E931297BAE0CB0ED11C86
:10208000E7E0EE0EF11C065F1F4F0B33F2E01F0777
:10209000D9F62A960FB6F894DEBF0FBECDBFDF91FA
:1020A000CF911F910F91FF90EF90DF90CF90089507
:1020B000CF92DF92EF92FF926B017C010E94840627
:1020C000B701A60188E090E0FF90EF90DF90CF90FD
:1020D0000C94CD34EF92FF920F931F93CF93DF9325
:1020E00000D00F92CDB7DEB7182FF62E042FE22EB8
:1020F00080919E0480FF28C0E82FE695F0E0EE591D
:10210000FE4F9081909328028E7F823039F59E0198
:102110002F5F3F4F812F0E9493064B8169818A81F7
:102120000E94ED0C10939F04F092A0040093A10470
:10213000EE2051F060919E0470919F048091A00464
:102140009091A1040E9458100F900F900F90DF9172
:10215000CF911F910F91FF90EF900895923011F75A
:1021600010919F04DFCFEEE9F4E0438128E0421BA9
:1021700008F440E021E0628181810C946A10EEE96C
:10218000F4E0438128E0420F08F44FEF21E0628140
:1021900081810C946A10EEE9F4E0628128E0621B10
:1021A00008F460E021E0438181810C946A10EEE93B
:1021B000F4E0628128E0620F08F46FEF21E04381D0
:1021C00081810C946A10EEE9F4E0818121E0438181
:1021D000628188500C946A10EEE9F4E0818121E07C
:1021E00043816281885F0C946A108091A2048823E5
:1021F00019F081508093A20460919E0470919F0415
:102200008091A0049091A1040C9458108091A20494
:10221000833018F48F5F8093A20460919E047091C4
:102220009F048091A0049091A1040C945810909167
:102230009E0490FF3DC09170811129C092609093DF
:102240009E04662351F060919E0470919F048091DA
:10225000A0049091A1040E94581060919E0466957C
:1022600070E041E050E08EE091E00E946D34892BF7
:10227000A9F01092290281E08093250220E040918C
:10228000A1046091A00480919F040C946A10853091
:1022900010F09860D4CF880F982BD1CF81E0809335
:1022A00029020E94C2059093230280932202E3CF69
:1022B000089580919E048695815009F484E061E040
:1022C0000C94171180919E0486958F5F853008F0DD
:1022D00081E061E00C94171180919E0480FF07C09B
:1022E000869582588F77823010F40C94621161E0E9
:1022F00082E00C941711EEE9F4E083E08083118210
:102300008FEF8283838314826081718182819381C4
:102310000C94581069EE7EEF90E080E00E94D93472
:1023200060E082E090E00E94BB3460E083E090E0F7
:102330000E94BB341092EE0160E084E090E00E94C5
:10234000BB3460E082E290E00E94BB3460E085E054
:1023500090E00E94BB3460E086E090E00E94BB34D5
:102360006FEF87E090E00E94BB3440E050E0BA019C
:1023700088E090E00E94CD3460E08DE090E00E9423
:10238000BB3440E050E0BA0188E190E00E94CD34D7
:1023900060E087E190E00E94BB3440E050E0BA0189
:1023A0008CE190E00E94CD3470E060E080E290E04B
:1023B0000E94D93440E050E0BA0188E190E00E94E8
:1023C000CD3480E00E94DF0E0E94860F40E050E096
:1023D000BA018FE090E00E94CD3440E050E0BA01B5
:1023E00083E190E00C94CD349F92AF92BF92CF9254
:1023F000DF92EF92FF920F931F93CF93DF9300D062
:1024000000D000D0CDB7DEB78E010F5F1F4F86E042
:10241000F80111928A95E9F785E5C82E81E0D82E5A
:10242000F12CE12CAA24A394B12CF60181916F0127
:102430008F3F09F443C0F894E82FE295EF70F0E085
:1024400021A18F70A50102C0440F551F8A95E2F7A4
:10245000CA01922F982B91A392A18095892382A3E0
:10246000789400C0EBE5F1E0912C31E021912F3F11
:1024700009F46EC0A22FA295AF70B0E090968C9137
:1024800090E02F7002C0959587952A95E2F780FD20
:102490005FC0832F982A330F51E0E236F50731F7FA
:1024A000F601319780818F3F11F00E94D50880EAB4
:1024B0008A95F1F7F801EE0DFF1D9082EFEFEE1A0D
:1024C000FE0AF6E0EF16F10409F0AFCF46E050E067
:1024D000B80182EF91E00E947A34FF24F3940097D0
:1024E00009F4F12C892BB1F186E0F801A2EFB1E0FB
:1024F00001900D928A95E1F781E08093F1010E94AD
:10250000C2059093F0018093EF018091EF019091CB
:10251000F0010E94B305059708F18091F2018093C4
:102520000F028091F301809310028091F401809357
:1025300011028091F501809312028091F60180933F
:1025400013028091F701809314021092F10106C0EA
:1025500080E0A0CF8091F1018111D7CF8F2D2696F9
:102560000FB6F894DEBF0FBECDBFDF91CF911F91A4
:102570000F91FF90EF90DF90CF90BF90AF909F9022
:1025800008958091D10290919D04892B80937801C8
:102590008091ED01882309F18091A0039091A1031E
:1025A000892B29F00E94F10A81110E94B70A8091BB
:1025B00078019091ED01892B8093780120E08AE7E2
:1025C00091E0FC013191CF0131112F5FF1E08038B2
:1025D0009F07B9F721110E94B70A48E050E063EE67
:1025E00071E088E791E00E947A34892BA9F088E0B5
:1025F000E8E7F1E0A3EEB1E001900D928A95E1F7F2
:10260000E0917904F0917A04309731F00280F381FF
:10261000E02D88E791E009940895EF92FF920F93DF
:102620001F93CF93DF93EC018A85811134C0EB8037
:10263000FC8087E5F81A26E12E9DC0012F9D900DA4
:102640001124DC01A953BC4F1496ED91FC91159710
:10265000309731F054966D917C9183539C4F09953E
:1026600086E18E9D80018F9D100D112409531C4F12
:10267000F80187810E94DD0AF80180850E94D60A50
:102680000E94C112188219861B861E821D8210921A
:10269000C6031092C503DF91CF911F910F91FF9058
:1026A000EF900895CF93DF93EC018989811118C0D1
:1026B00081E0898B8F810E94E40A80919D04988536
:1026C000892B80939D040E94C112EA81FB8130977F
:1026D00039F06C897D89CE010696DF91CF910994FE
:1026E000DF91CF91089580911901877F809319011F
:1026F00082E00E94D60A8091190184FF06C08F7E75
:102700008093190182E00E94E40A8091190185FFFB
:1027100006C08F7D8093190180E20E94E40A0C9428
:10272000C11290E080E00E94E40590E080E00E9409
:10273000CE0510929D040E94C11286E0ECE1F2E009
:10274000DF011D928A95E9F7109216021092150288
:10275000109217020C94290780939C040C949113F7
:1027600080919C04982F9670963019F488600C9490
:10277000AC13877FFCCF21E030E001C0220F8A95A7
:10278000EAF7209580919C0482230C94AC139091DD
:10279000E201809589238093E201282F277091F42C
:1027A000282F082E000C330B9217130659F0909126
:1027B000F90192FD07C08595859585950E94BB130B
:1027C0000C94EA0A0895CF93C091F901C2FB9927AE
:1027D00090F9981799F080FBC2F9C093F9016091C4
:1027E000F80184E090E00E94BB346C2F82E290E01C
:1027F0000E94BB3482E0CF910C94C713CF9108950F
:1028000021E030E001C0220F8A95EAF780919C0414
:10281000822B0C94AC139091F90192FD10C098E0BA
:10282000899F90011124622B6093E2010E940014A1
:102830000E94C2059093E1018093E00108950C94F9
:1028400000148093EE010C9491131092D102EAE7E8
:10285000F1E086E0DF011D928A95E9F70C9491136F
:102860001F93CF93DF93CDB7DEB7AA970FB6F89437
:10287000DEBF0FBECDBF83E994E02091F100DC0103
:102880002D93CD01B4E08B399B07B9F78091940467
:10289000833009F472C0B8F4813009F449C0823041
:1028A00009F4B3C08091E80083FF96C2809193043D
:1028B000909194049A3008F08FC2E92FF0E0E7502D
:1028C000FB4C0C9457348A3009F48EC08B3009F4D9
:1028D00071C0893039F780919304813219F7809162
:1028E000970490919804009711F00297D9F680917F
:1028F000E800877F8093E8008091E80082FF38C07D
:102900009091F3008091F200029731F48091F100F0
:10291000813011F0863021F48091F100809387049A
:102920008091E8008B778093E8000E949F04BACFE3
:1029300080919304813A09F0B5CF8091E800877FB8
:102940008093E8008091970490919804892B61F41A
:1029500068E088E894E070E00E9451058091E8000A
:102960008B778093E8009ECF60E090E080E0F3CF2B
:1029700080919B048111C0CF95CF80919304813ABF
:1029800009F090CF8091970490919804892B09F0D9
:1029900089CF8091E800877F8093E8008091E800EC
:1029A00080FFFCCF80911B018093F1008091E800B3
:1029B0008E77B9CF80919304813209F073CF8091E3
:1029C000970490919804892B09F06CCF8091E800CE
:1029D000877F8093E8000E949F04809195048093F4
:1029E0001B010E9425145ECF80919304813209F06F
:1029F00059CF8091E800877F8093E8000E949F0470
:102A000080919604809386044DCF80919304813AFF
:102A100009F048CF8091E800877F8093E80080919B
:102A2000E80080FFFCCF80918604BECF803899F00B
:102A3000823809F0D1C1809197048F70873008F0F7
:102A4000CBC18093E9008091EB0085FB882780F95A
:102A50001092E90006C08091900490919104911128
:102A600082609091E800977F9093E8008093F10056
:102A70001092F1008091E8008E77AAC1882309F4B2
:102A800098C1823009F0A8C18091950481119BC141
:102A9000809197048F702FEF280F263008F09CC18B
:102AA0008093E9002091EB0020FF8DC1933031F439
:102AB0008091EB0080628093EB0085C19091EB00E8
:102AC00090619093EB0021E030E001C0220F8A95E5
:102AD000EAF72093EA001092EA008091EB00886008
:102AE000EACF811179C1109195041F778091E3009D
:102AF0008078812B8093E3008091E800877F80932A
:102B0000E8000E949F048091E80080FFFCCF809144
:102B1000E30080688093E30082E0111183E08093FA
:102B20009B045AC18058823008F056C12091950408
:102B3000309196042C3DE3E03E07A1F583E08A83C3
:102B40008AE289834FB7F894DE01139620E03EE0D5
:102B500051E2E32FF0E050935700E49120FF03C0CF
:102B6000E295EF703F5FEF708E2F90E0EA30C0F09B
:102B7000C7968D939D932F5F243159F74FBF809156
:102B8000E800877F8093E8006AE270E0CE0101965A
:102B90000E9451058091E8008B778093E8001CC16A
:102BA000C096E7CF8091970490919804432F5527C2
:102BB0004330510509F44AC078F54130510509F414
:102BC00085C08BE590E0E6EBF6E04230510509F078
:102BD00003C12091E800277F2093E8002091990409
:102BE00030919A048217930708F49C0140E0211564
:102BF000310509F070C041116EC08091E80082FD7E
:102C0000C9CF80919B04882329F2853019F28091E5
:102C1000E80083FFF2CFBECF4132510509F447C02F
:102C20004232510509F0D8C08330910508F0D4C074
:102C3000FC01EE0FFF1FE659FE4F0190F081E02DE1
:102C400089599E4FDC018C9190E01DC033272130C3
:102C50003105E9F02115310579F022303105F9F01F
:102C60002330310509F0B8C0E3E2F7E0E4918E2F9C
:102C700090E0E3E2F7E007C0E1E8F7E0E4918E2FAF
:102C800090E0E1E8F7E0009709F4A6C0A2CFEDE5F7
:102C9000F7E0E4918E2F90E0EDE5F7E0F4CFE1E48A
:102CA000F7E0E4918E2F90E0E1E4F7E0ECCF8330A1
:102CB000910508F091C0880F991FFC01E059FE4F63
:102CC0000190F081E02D89E090E083CF82E190E0F7
:102CD000E1E1F7E07ECF80919B04882309F45ACF8D
:102CE000853009F457CF8091E80083FD53CF809160
:102CF000E80082FD82CF8091E80080FF78CF90913C
:102D0000F3008091F2002115310519F0883091050A
:102D100050F041E0089709F040E08091E8008E779C
:102D20008093E80064CF44914093F10031962150A4
:102D300031090196E8CF803809F04EC08091E80053
:102D4000877F8093E800809192048093F10092CE77
:102D5000811142C0109195041230F0F58091E80085
:102D6000877F8093E800109392040E949F041123B0
:102D700011F084E005C08091E30087FDFACF81E087
:102D800080939B0442E061EC81E00E94BE0442E239
:102D900061EC84E00E94BE0442E261EC82E00E94A9
:102DA000BE0442E260EC83E00E94BE0480919B047A
:102DB00013C080919504813079F481E0933009F05B
:102DC00080E0809391041092E9008091E800877F71
:102DD0008093E8000E949F048091E80083FF0AC06E
:102DE0008091E800877F8093E8008091EB0080620B
:102DF0008093EB00AA960FB6F894DEBF0FBECDBF4E
:102E0000DF91CF911F910895882321F00E94D60A67
:102E10000C94C1120895882339F090919D04982B49
:102E200090939D040C94C1120895882321F00E9470
:102E3000DD0A0C94C1120895882321F00E94E40A4F
:102E40000C94C1120895882309F452C0823871F499
:102E50000E94FA0581FF4CC089E30E941E0B0E946C
:102E6000C11289E30E94110B0C94C112833859F4EA
:102E70000E94FA0580FF3CC083E50E941E0B0E9461
:102E8000C11283E5EFCF843859F40E94FA0582FF1E
:102E90002FC087E40E941E0B0E94C11287E4E2CF7C
:102EA0009CEF980F913AF0F290E2980F983050F41E
:102EB000877091E001C0990F8A95EAF7892F0E94E7
:102EC000DD0AD2CF9BE5980F933020F490E080E0AC
:102ED0000C94E40598E5980F973120F490E080E099
:102EE0000C94CE05803F20F00E9450070C942907D7
:102EF0000895CF93DF93EC010E942317CE010E9427
:102F0000D90B9E01205E31092830310510F0CD2B00
:102F100021F4DF91CF910C941517DF91CF910C9490
:102F20000417CF93C82F882309F48CC08238C1F4CA
:102F30000E94FA0581FD86C089E30E941E0B0E9453
:102F4000C1122FEF81EE94E0215080409040E1F7D4
:102F500000C0000089E30E94110BCF910C94C112B4
:102F60008338A1F40E94FA0580FD6CC083E50E94BD
:102F70001E0B0E94C1122FEF81EE94E02150804081
:102F80009040E1F700C0000083E5E5CF8438A1F46C
:102F90000E94FA0582FD56C087E40E941E0B0E9423
:102FA000C1122FEF81EE94E0215080409040E1F774
:102FB00000C0000087E4CFCF8CEF8C0F813A68F41B
:102FC000EAE7F1E08191C817B9F121E0E038F207B2
:102FD000C9F78C2F0E941E0BC0CF80E28C0F883067
:102FE00048F4C77081E001C0880FCA95EAF70E94D3
:102FF000E40AB3CFEBE5EC0FE33040F4F0E0EC5D36
:10300000FE4F808190E0CF910C94E405E8E5EC0F51
:10301000E73150F4F0E0EE0FFF1FE95DFE4F8081D5
:103020009181CF910C94CE05C03F60F08C2F0E940F
:103030006B08CF910C9429078C2F0E94110B0E94D2
:10304000C112C7CFCF9108951F93CF93DF93182F4D
:10305000C091BE03D091BF03893321F0C091BC035E
:10306000D091BD03812F0E949117209731F4812FB9
:10307000DF91CF911F910C9423178FE99FE0019767
:10308000F1F700C000002197F0CF0F931F93CF936B
:10309000DF93C42FD22FFC0182818823A1F04093BB
:1030A000C4030E94C2059093C3038093C203C770F8
:1030B00081E001C0880FCA95EAF7DF91CF911F9197
:1030C0000F910C941C171091C403141339C08091F4
:1030D000C2039091C3030E94B3052091B6033091BF
:1030E000B7038217930760F5C0E2CD0F1D17B9F043
:1030F00080E2810F883040F4177081E001C0880FB2
:103100001A95EAF70E941517C83048F481E09D2F00
:10311000977001C0880F9A95EAF70E941C17802FBC
:103120000E942418C83098F4D77081E001C0880F3D
:10313000DA95EAF7DF91CF911F910F910C94151753
:10314000C77081E001C0880FCA95EAF7F3CFDF911D
:10315000CF911F910F910895AF92BF92CF92DF92BE
:10316000EF92FF920F931F93CF93DF93EC018AE0CE
:10317000A82E2881222309F48CC02130C9F5998119
:103180008A81913021F422960E94241805C0923041
:1031900029F422960E9491172196EBCF933021F4C7
:1031A00022960E942317F8CF943011F02196F4CF85
:1031B000229630E020E0AE014F5F5F4F8053990BC5
:1031C0008A30910550F02150310930F38FE99FE0AA
:1031D0000197F1F700C00000F6CFA29EB001A39EB8
:1031E000700D11249C01260F371F8981EA01E3CF5E
:1031F000E22FF0E0E154FE4FB490822F8695869541
:10320000869590E0FC01E155FE4FE4902770F12C8B
:10321000022E02C0F594E7940A94E2F731E0E3222B
:10322000FF24FC01E156FE4FC490D12C022E02C0B7
:10323000D594C7940A94E2F731E0C322DD24FC015F
:10324000E157FE4F049110E002C0159507952A95AD
:10325000E2F701701127E114F10419F081EE0E94E8
:103260009117C114D10419F086EE0E9491178B2D8D
:103270000E942418CD2819F086EE0E942317EF280B
:1032800019F081EE0E942317012B09F485CF8CE2FF
:103290007BCFDF91CF911F910F91FF90EF90DF9047
:1032A000CF90BF90AF900895CF93DF93EC010E9431
:1032B000D90B9E01205E31092830310510F020978E
:1032C00039F40E941C178C2FDF91CF910C94911729
:1032D0000E940B17F8CF662329F020919D042260ED
:1032E00020939D049C013056211540E2340720F0C4
:1032F000305E2115304108F499270C945419DF925F
:10330000EF92FF920F931F93CF93DF937C018B017A
:10331000D42E8091190182FF8CC0C091F402D0910B
:10332000F502CE15DF0521F0E114F10409F081C0AA
:10333000809119018B7F8093190181FD73C0809169
:10334000F2029091F302A801481B590B81E02091F1
:103350001701309118014217530708F480E081707B
:10336000F82E80911901F0FA81F980931901FE017C
:1033700083E0F695E7958A95E1F7EE71FF27EE5227
:10338000FD4F20813181AE014F70552781E090E0E3
:1033900002C0880F991F4A95E2F7FF2009F444C044
:1033A000822B932B918380838091D10281FF08C06F
:1033B0008091190180618093190182E00E94DD0AE9
:1033C0008091D10285FF08C08091190180628093AD
:1033D000190180E20E94DD0A6F2DCE010E946B1957
:1033E000DD2031F08091B90385FF02C086FF3BC02C
:1033F0008091BC039091BD030E94AE0C8091F402B9
:103400009091F5029C013056211540E2340720F0DE
:10341000305E2115304108F499270E9479170E94E7
:1034200073131DC081E09BCF8095909582239323D9
:10343000B9CFC701992797013056211540E23407CB
:1034400028F0305E2115304108F0C7010E9479173D
:103450008091F4029091F5028E159F0501F310936F
:10346000F3020093F202DF91CF911F910F91FF9031
:10347000EF90DF9008959F92AF92BF92CF92DF922C
:10348000EF92FF920F931F93CF93DF9300D000D062
:10349000CDB7DEB77C01DC0113964D915C9114979A
:1034A00011966C9111978C910E940606811179C03A
:1034B00061E0C7010E940A0E8C01F701828181112F
:1034C00011C0D70112968C91811149C00031FFE5DE
:1034D0001F0709F418C101312FE5120709F0BCC715
:1034E00082E012C180910C0190910D01019649F387
:1034F00077ECC72E73E0D72EB12CA12C992493948E
:1035000080910C0190910D018A159B05D4F2F60172
:1035100086818823E9F0818592850817190739F497
:103520008091C5039091C6030817190789F0D60149
:103530001F969C921F971C961C930E931B97C60177
:103540000E945213C60106960E940D1310929D040C
:10355000BFEFAB1ABB0AE6E1CE0ED11CD1CF98016A
:1035600022513F452031310508F06CC78FEF93E0C1
:103570000E94A7346EEED62ED00E0BE312E0882305
:1035800061F18091E201877061F0D70112968C9110
:10359000882339F08091F90182FD03C082E00E9406
:1035A000C7130F900F900F900F90DF91CF911F9145
:1035B0000F91FF90EF90DF90CF90BF90AF909F90D2
:1035C00008950115F4E01F07E1F2C8010E94A73435
:1035D000811101C0DA940F5F1F4FD110F2CF198211
:1035E0001A821B821C8299249A9468012FEFC21AB6
:1035F000D20AC8010E94A73489831A82882309F459
:10360000C0CF813009F073C0580132E0A30EB11C65
:10361000C6010E94A734C82E8A83882309F4B1CF3B
:10362000C5010E94A734D82E8FEF8C0D833068F42B
:10363000580143E0A40EB11CDB82DD2021F0CE0155
:1036400001960E94AC188501D0CF8BEF8C0D833092
:1036500030F5C8010396DB825C01DD20A1F358013F
:1036600054E0A50EB11C0E94A7348C83882359F323
:103670008B819C818130AFEF9A0710F0982F8827BB
:10368000B6E0CB1631F0E7E0CE1631F00E94142AF6
:10369000DACF0E94E429D7CF0E945E29D4CFF4E08C
:1036A000CF12D1CF580124E0A20EB11CC80103965D
:1036B0000E94A734DD2009F464CF882309F461CF88
:1036C0008150990B989E9001999E300D11244D2D9B
:1036D0004150550BCA01820F931F019708F4B3CFD5
:1036E000AFE9BFE01197F1F700C00000F6CFCE01BF
:1036F00001960E94AC185601A6CF81E00E940014EA
:103700000E94B0133ECF81E00E94BB13F9CF82E04C
:10371000F5CF2FEFC216D10411F008F0A9C661E76A
:1037200072E08C2D0E94950F892B29F586E18C9DE6
:10373000F0018D9DF00D1124E953FC4F86818130FD
:1037400009F062C08091710290917202892B99F008
:103750008091730290917402892B69F080917502B7
:10376000909176022091770230917802822B932BF0
:10377000892B09F453C080910C0190910D018C1597
:103780009D0524F4D0920D01C0920C01F7018281B5
:1037900096E19C9D50019D9DB00C112495012953EB
:1037A0003C4F6901D90150968C935097928116969F
:1037B0008C911697992309F43FC01A961C930E9387
:1037C00019978F5F16968C930E94C205F601968713
:1037D00085878091ED01878380919D049091D1022E
:1037E000892B80870190F081E02D309741F0D60140
:1037F00054966D917C91C50183539C4F099510930C
:10380000C6030093C50334C6823009F0B4CF80915B
:10381000750290917602892B09F4ADCF26E12C9D9B
:10382000C0012D9D900D112489539C4FDC015096B1
:103830001C920E9452139FCF882309F419C6F901E4
:103840008189882309F414C6C50183539C4F0E94C3
:103850000D130EC68091190181608093190136C63F
:10386000809119018E7F809319010E9473132EC6D7
:10387000809119018F7E013E110531F0053E110541
:10388000C9F4809119018F7D8093190180911901EC
:1038900080FF2BC6D70112968C910832110528F5AE
:1038A0000E31110508F074C00430110580F5811146
:1038B00018C61BC6C8019056811540E2940720F037
:1038C000905E8115904110F78091190182FF0DC61D
:1038D0008091BB0381FD09C622E032E040E0B601E1
:1038E00090E080E00E947F1900C60933110558F46A
:1038F0000D32110518F40B321105C9F69091B90378
:1039000092FDD5CF08C004361105C1F3D0CF9091F8
:10391000B90394FDCCCF882309F4A1C09091D102C2
:103920008091ED01282F292B322F3D7FB1F110928C
:10393000F5021092F4023091B90331FD2EC0F80166
:1039400043E0F695E7954A95E1F7EE71FF27EE52D1
:10395000FD4F98012F70332781E090E002C0880F5F
:10396000991F2A95E2F780959095208131818223D5
:1039700093239183808360E0C8010E946B1980913A
:10398000ED018D7F0E94C20A82E00E94C713F9CD2B
:103990009091B90393FD8BCFBECF38E0F701A2E041
:1039A000B2E001900D923A95E1F710920402109264
:1039B000060210920502A090F402B090F5020A15DA
:1039C0001B05B1F53091B90335FF32C040911901A3
:1039D00041FB992490F841FF02C036FF29C0409175
:1039E000F2025091F302B601641B750B4091B603CD
:1039F0005091B70364177507D8F491FF08C0809100
:103A0000190180618093190182E00E94DD0A809192
:103A1000D10285FF08C0809119018062809319014D
:103A200080E20E94DD0A692DC5010E946B19A9CDB3
:103A30009091190121FB91F9909319018D7F0E94BA
:103A4000C20A1093F5020093F402D092F302C092DE
:103A5000F2028091190184608093190195CF97013A
:103A600040E0B601C8010E947F198BCD053F4CE5AF
:103A7000140709F469C008F461C0063F8CE5180713
:103A800009F468C0D70112963C91332309F44CC560
:103A90001092C4030330BDE51B0708F067C00A3F5E
:103AA000ECE51E0730F4C80182509C45449708F0AD
:103AB00067C00E94310E9093F9018093F8010131A3
:103AC0003CE5130709F44FC108F0CCC009305CE5B0
:103AD000150709F436C108F099C005309CE51907AF
:103AE00009F427C108F07FC00330BCE51B0709F4C7
:103AF00016C108F01AC18091F801816002301C459E
:103B000009F410C16091F8011091F90184E090E08E
:103B10000E94BB34612F82E290E00E94BB340E947D
:103B200025142FCD07E225EE45EE68ED7CE5F8C4BF
:103B300006E221EE40EE63EF7CE5F2C407E225EEFB
:103B400044EE64EF7CE5ECC406E221EE42EE65EF64
:103B50007CE5E6C407E225EE46EE66EF7CE5E0C4D0
:103B600008E221E045EE69ED7CE5DAC40136FDE5C9
:103B70001F0709F49ECF053A2DE5120709F499CFE6
:103B800006318CE5180709F0ADC18091D102982F5C
:103B90009A7A2091B80320FF04C0482F447409F09A
:103BA00090E021FF04C0482F417109F090E022FF0E
:103BB00004C0482F487809F090E023FF03C08272C8
:103BC00009F090E0332309F4F8C081E0911101C0BD
:103BD00080E08093800189E2911185E30E941E0BB1
:103BE0000E94C112CECC8091F801806207302CE592
:103BF000120709F497C08091F801806108301C45D4
:103C000008F490C08091F80180648CC08091F80124
:103C10008B7F0D304CE5140709F484C080F40B3021
:103C20008CE5180709F493C08091F8018C600C3082
:103C30001C4508F477C08091F8018D7F73C0809196
:103C4000F8018F7E0F30ACE51A0709F46BC0809144
:103C5000F801877F00311C4508F464C08091F801A9
:103C60008F7D60C00D3FECE51E0709F478C050F56C
:103C700005312CE5120709F480C098F48091F80111
:103C8000837F03314CE5140709F44CC008F46FC07E
:103C90000E9425149091F801892F97FB87F980588D
:103CA00041C00B3F8CE5180709F447C008F053C02A
:103CB0008091F90181600A3F1C4509F023CF809370
:103CC000F90120CF0130BDE51B0709F462C0B8F44B
:103CD0008091F9018C7F0F3FFCE51F0781F38091F4
:103CE000F901836001151D4550F38091F901982F6A
:103CF000909591708E7F892B90FB81F9E0CF0136F2
:103D00003DE5130709F44BC0053A4DE5140709F4E6
:103D10004DC002301D4509F0F5CE60E03BC08091FA
:103D2000F80182608093F801EDCE8091F801846003
:103D3000F9CF8091F8018860F5CF8091F901826018
:103D4000BECF0E9425148091F8018068EBCF80914E
:103D5000F8018E7FE7CF8091F9018E7FB0CF8091FF
:103D6000F9018D7FACCF8091F8018F7BDBCF0E9472
:103D700025148091F8018F77D5CF8091F80182FBCF
:103D8000992790F921E0922790FB82F990FB83F923
:103D9000C9CF61E08EE090E00E94BB34B3CE909139
:103DA000F801892F8F7E94FF8061BCCF9091F8013C
:103DB000892F8E7F90FF8160B5CF80918001811126
:103DC00004C089E20E94110B0BCF85E3FBCF073CB7
:103DD0004CE5140709F472C008F46BC0083C9CE57C
:103DE000190709F470C043EB50E16FEB70E1093C37
:103DF0001C4509F0BAC30E947E06C3CB0E3CBCE54D
:103E00001B0709F4BECB78F40C3CFCE51F0709F452
:103E100064C045EF50E166E071E10D3C1C4558F38C
:103E200061E081E034C0063D3CE5130738F4003D15
:103E30001C4508F0A6CB0E946C11A3CB0D351D4587
:103E400009F49FCB92C380919E0480FF1BC08E7F9C
:103E500080939E0460919E0470919F048091A004C1
:103E60009091A1040E945810109229028FEF90E7C0
:103E7000A2E081509040A040E1F700C000000E9405
:103E8000B80C7FCB816080939E0461E086950E9490
:103E9000171177CB49E551E162E671E1ACCF42E61B
:103EA00051E169E571E1A7CF43EE50E16CEE70E1BD
:103EB000A2CF4CEE50E163EE70E19DCF4BEC50E1B0
:103EC00067ED70E198CF47ED50E16BEC70E193CF77
:103ED0004FEB50E163EB70E18ECF46E051E165EFCF
:103EE00070E189CF0A35BDE51B0759F158F401157A
:103EF000FCE51F07C9F00E3D1C4509F036C30E94C2
:103F00008A113FCB0B353DE51307E9F00C351D4514
:103F100009F02BC38091F90182FB882780F991E099
:103F200089270E94E31321C30E9425145FEF84E3D5
:103F30009CE0515080409040E1F700C000000E949A
:103F40008A0C81E0EECF80E0ECCF8281008111818C
:103F5000882369F0C8010E94980DD82E682FC801E7
:103F60000E948E0BB8018D2D0E947C0D04C3C801E8
:103F70000E94610BD82EF6CF202F2F70B22E802FEB
:103F8000807F19F0B29490EFB922DD20A9F0BB2018
:103F900059F080E2810F883010F0111107C08B2D8D
:103FA0000E94E40A0E94C112812F5AC080919D0490
:103FB000B82AB0929D04F6CF812F0E942317BB2010
:103FC00009F450C080E2810F883010F0111104C054
:103FD0008B2D0E94DD0A03C08B2D0E94D60A0E9401
:103FE000C11240C0302F3F70B32E802F807F8032AF
:103FF00019F0B29480EFB822112321F1113009F4A5
:10400000A4C0DD2009F4ADC0CC2009F47DC020E0BF
:10401000D7014C9111965C91119712966C91129761
:1040200013967C91139714968C910E94E10D8091C8
:10403000BB0381FDB9CFF701858180FFB5CF8F70BC
:10404000858362C08091F90182FF40C0DD20C1F10B
:10405000BB2029F08B2D0E94E40A0E94C11280E04F
:104060000E949117A92DA850BB0B149710F40E9421
:10407000FA05812F902F0E94BE0B8111C4C11092AE
:10408000820110928101AA20B1F08091E20180FDAD
:1040900012C0D70112961C928595859585950E9430
:1040A0000014C7010E943B1A8091E2018595859515
:1040B00085950E94BB1360E0C7010E940A0E71CA79
:1040C00080E00E942317BB2069F282CFDD2001F13E
:1040D000C11004C08091ED018B2917C041E0C412CA
:1040E00006C08091ED018B290E94C20ABBCF80914E
:1040F000BA03823078F3C812EDCF0E94B70A8091DC
:10410000DF01B812B092DF018B2D0E941C17AACFDD
:10411000C11006C00E94B70A8B2D0E941517A2CFAE
:104120008091BA0351E0C5120BC0823008F49ACFD7
:104130008091D1028B2109F495CF0E940B0BEACF1D
:10414000823040F3C812E6CF8DCF8091C003DD20CE
:1041500021F08C1508F486CFD7CFC81608F082CF8F
:10416000DBCFCC20C9F28091BE039091BF031933FD
:1041700021F08091BC039091BD030E94AE0C812F71
:104180000E9423176FCF802F86958695837069F0E4
:10419000813009F067CF812F902F9370D11002C02A
:1041A00090E080E00E94CE055DCF812F902F93702C
:1041B000D11002C090E080E00E94E40553CF812F2F
:1041C000DD2029F00E946B080E9429074BCF0E9436
:1041D0005007FACF802F837091F5D11043CF412F34
:1041E000429546954770440F440F812F8F70042EDF
:1041F00001C0880F0A94EAF7212F207114FF07C02D
:104200002FE030E001C0220F4A95EAF72095302FC9
:10421000369536953370323069F050F44091EE01A6
:10422000313029F0822B84230E9421141BCF842B50
:10423000822BFACF282B8091EE018227F5CF86952D
:10424000DD2011F0802F8170882309F40BCF412FDE
:10425000429546954770440F440F812F8F70042E6E
:1042600001C0880F0A94EAF7212F207114FF07C0BC
:104270002FE030E001C0220F4A95EAF72095302F59
:10428000369536953370323069F050F440919C0485
:10429000313029F0822B84230E94AC13E3CE842B8F
:1042A000822BFACF282B80919C048227F5CFF02F08
:1042B000FF70BF2EDD2029F08F2F0E940014812F68
:1042C00024CF812F0E9415178B2D0E94BB13CACEBD
:1042D000123F89F160F4103FB9F0113F81F0DD2009
:1042E00009F48CC0C11060CE802F8F7128C0133F9D
:1042F00049F1143FA1F78091F90182FF2FC0802F6F
:104300008F71DD2011F31BC08091C003DD2079F097
:10431000C81608F0A7CE202F2F7181E090E001C0D1
:10432000880F2A95EAF790919C048927B5CF8C15C0
:1043300008F498CEF0CF802F8F71D110C6CF0E9495
:10434000001490CE80E0DD2009F4A6CF81E0902F0C
:104350009F7101C0880F9A95EAF79ECF8091BA03AA
:104360008230A0F18091DF01DD20F1F00E94DD0AB2
:104370008091E2018770843041F40E94EA0A802F24
:104380008F710E94BB13A12C6DCE8091BA03C81609
:10439000D0F7202F2F71B22E822F0E94001463E0DD
:1043A0008B2D0E940B14EFCF0E94E40A8091BA0378
:1043B000C81640F00E94EA0A0E940B0B64E0802FAE
:1043C0008F71EFCF81E00E94C713DDCFDD2059F060
:1043D000302F3F71B32E832F0E94001463E08B2D8A
:1043E0000E940B143FCE81E00E94C71341E04C15A0
:1043F00008F038CE82E00E94C71334CEC110B3CE8D
:10440000802F8F7162CFDD2019F0C11038CE3BCEE6
:10441000C11035CE20E0F701408151816281738166
:1044200084810E94E10D8091BB0383FF28CE80919F
:10443000810190918201029709F021CE812F0E9483
:1044400024181DCE0031BFE51B0709F456C9013100
:10445000EFE51E0709F45BC96801E7E5DE1A88236A
:1044600009F457C9FFEFCF16D10409F008F483C946
:104470008091B90380FF39C00E94C2056C01D70149
:1044800012968C91882309F4F3C98091190182FF57
:1044900008C022E032E040E0B60190E080E00E94F7
:1044A0007F190B31BCE51B0709F4D4C90C31ECE5CD
:1044B0001E0709F4D5C990911901892F8E7F90FFAD
:1044C00081600A31FCE51F0709F4CDC9C801905687
:1044D000811520E2920728F0905E8115904108F046
:1044E000D5C91092F5021092F402033FBCE51B07F8
:1044F00009F41ECB08F0BACA083DFCE51F0709F411
:1045000011CB093D2CE5120709F42ACB073D3CE508
:10451000130709F0B7CA06E221EE41EE67ED7CE52C
:10452000C7010E9445182DC806314CE5140709F44F
:104530002CCB8091D10282720A3C9CE5190709F4C8
:10454000C7CC08F05BCC053CBCE51B0709F4ACCC40
:1045500008F03DCC033CFCE51F0709F49BCC08F0B8
:104560009ECC023C1C4509F46ECCF70186819781F4
:10457000009709F4EACC0E942F09182F092FF701A0
:10458000D280C580C2943FE0C3228091E20187704F
:10459000C1F0AD2CDD20B1F0892F807F803421F077
:1045A00080E2810F883068F08091F90182FD09C0B6
:1045B00082E00E94C7138091E2018770AA24A3942D
:1045C0008111A12C902E92942FE09222FBE0F915FC
:1045D00008F448CDE92DF0E0ED5FFA4C0C94573427
:1045E000CF92DF92EF92FF920F931F93CF93DF93BF
:1045F00080919A01807F31F480919701C091DE0112
:1046000081110BC0DF91CF911F910F91FF90EF901F
:10461000DF90CF9008952196C77080919D018C17EF
:1046200089F3F0909501E0909601C0909801D090A8
:104630009901A6016E2D8F2D0E940606D0E08111F2
:10464000EACF8E0183E0000F111F8A95E1F7F80190
:10465000E256FE4F81818E11DECF80818F11DBCF3C
:1046600082818111D8CFE380F480EC18FD0860E0EE
:1046700085E991E00E940A0E8091B6039091B703FC
:10468000E816F90640F680919A018F708061809358
:104690009A01F801ED55FE4F80818F708061808313
:1046A00085E991E00E943B1ADF91CF911F910F9114
:1046B000FF90EF90DF90CF900C94570B3F924F926A
:1046C0005F926F927F928F929F92AF92BF92CF92A2
:1046D000DF92EF92FF920F931F93CF93DF93CDB7AB
:1046E000DEB765970FB6F894DEBF0FBECDBF8C0165
:1046F00085E0F801DE01519601900D928A95E1F76F
:10470000D8014C9011965C9011971296EC901297EC
:104710001396CD90DC9060E085E991E00E940A0E4E
:1047200085E9A82E81E0B82E80909801909099019B
:10473000A40160919601809195010E940606811165
:10474000CAC1F0909701F601E819F9094F0160E03C
:10475000FF2009F46DC1C5010E940A0E6090B603E6
:104760007090B70330909A018614970408F013C133
:104770004091980150919901B0909501A0909601B7
:10478000832D807F6A2D09F0ADC08B2D0E94060617
:10479000FE2C81113BC0D80111968C9111978A1182
:1047A00035C08C918B1132C020919B0130919C01BE
:1047B00016968D919C912817390741F5E11026C076
:1047C000832D8F70806180939A0185E991E00E942A
:1047D0003B1A80919A01F80185838F2D65960FB65B
:1047E000F894DEBF0FBECDBFDF91CF911F910F9127
:1047F000FF90EF90DF90CF90BF90AF909F908F9001
:104800007F906F905F904F903F900895F4EF6F16F8
:10481000F1E07F0620F48091BB0380FF21C0A60158
:10482000652D842D0E940606811118C081E08E2519
:1048300080FF16C04E2D652D842D0E94370B8823D6
:1048400079F085E991E00E943B1A88E0E5E9F1E022
:10485000DF011D928A95E9F7F12CBFCF80E0E8CF08
:10486000A601652D842D0E940606811124C081E0D9
:104870008E25B82FB170CB2E80FF2BC04E2D652D0D
:10488000842D0E94370BD82E811123C0498A5A8A61
:1048900089899A890E94C70D292F22952F7022306D
:1048A00060F0243088F49F7061F0F8019581907F6A
:1048B00041F4FD2C92CF80E0DCCF9F7011F0882373
:1048C000C1F3805E8830A8F3C8010E943B1ADC2C3B
:1048D000F0CFEE2009F481CF80919A01816080931E
:1048E0009A01BACF8B2D0E940606811124C0D801EF
:1048F00011968C9111978A111EC08C918B111BC03F
:1049000020919B0130919C0116968D919C91179757
:104910002817390781F4E1100EC015963C92C801A2
:104920000E943B1A88E0F801A5E9B1E001900D92E0
:104930008A95E1F752CFC8010E94D30D882339F13F
:10494000EE2029F180919A018032A0F0209195010A
:10495000309196013A8729871B86DD86CC868E8723
:1049600080919B0190919C01988B8F87CE01099635
:104970000E943B1A88E0F801A5E9B1E001900D9290
:104980008A95E1F70E94F022FF24F39426CFC80114
:104990000E943B1AF9CF832D807F09F452CF90906B
:1049A0009501809096014091980150919901682D50
:1049B000892D0E94060681111CC0F8018181881191
:1049C00018C08081891115C020919B0130919C01F4
:1049D000868197812817390761F4E1100AC0358272
:1049E000C8010E943B1A88E0D5011D928A95E9F71B
:1049F000F4CEC8010E94D30D882349F2EE2039F28B
:104A000080919A01803208F4B5CF209195013091C0
:104A100096013A8329831B82DD82CC828E8380912A
:104A20009B0190919C0198878F83CE010196A0CF26
:104A300085E991E00E940A0E8091B6039091B70338
:104A40008816990680F6FE2CEE2009F4A0CFE0909F
:104A50009501D090960140919801509199016D2D4A
:104A60008E2D0E940606811128C0F80181818D11CA
:104A700024C080818E1121C020919B0130919C0126
:104A80008681978128173907C1F48091BB0382FD85
:104A900049CF90919A0190FD45CF907F09F442CF84
:104AA00080919A018583903F09F439CF982F907FA8
:104AB000905F8F70892B858332CFC8010E94D30D00
:104AC000811158CF80919A01816080939A01C80129
:104AD0000E943B1A82CEEE2009F459CFC8010E94F1
:104AE000D30DF82E882309F452CF88E0F801A5E908
:104AF000B1E001900D928A95E1F780919501909136
:104B000096010E94C70D0E94F02267CECF93DF93DB
:104B1000CDB7DEB760970FB6F894DEBF0FBECDBF3E
:104B200029873A874B875C876D877E878F87988B2D
:104B3000CE0109960E945E2381112FC088E0FE01FC
:104B40003996DE01119601900D928A95E1F74C8518
:104B50005D856A8589850E94060681111EC0A09127
:104B60009D01B0E0CD010196877099272091DE016B
:104B70002817190609F193E0AA0FBB1F9A95E1F7D0
:104B8000A256BE4F98E0FE01319601900D929A9583
:104B9000E1F780939D010E94570B8091DE01909177
:104BA0009D01891317C060960FB6F894DEBF0FBE43
:104BB000CDBFDF91CF9108950E94251410929D01E1
:104BC0001092DE0188E0E5E9F1E0DF011D928A95AF
:104BD000E9F7E3CFB8E08B9FC001112482569E4FC6
:104BE0000E945E238823F9F28091DE0190E0019615
:104BF000877099278093DE01D0CFEF92FF920F93B9
:104C00001F93CF93DF938091F902882361F0C091C5
:104C1000F8028CE0F82E8091F902C81758F0109233
:104C2000F9021092F802DF91CF911F910F91FF903E
:104C3000EF900895EE24E394EC0EE092F8020C2F2E
:104C400010E0CF9DE0011124C650DD4F4B815C8107
:104C5000698188810E94060681111DC08E819F8115
:104C6000892B21F488859985019651F42881398111
:104C70004A815B816C817D818E819F810E94862526
:104C8000F09EF001F19EF00D1124E650FD4F1482CC
:104C9000138210929D04CE2DBECF10929D031092D0
:104CA0009C0310921A0180919B0380939A030E94A7
:104CB0003F060C94FD253F924F925F926F927F9238
:104CC0008F929F92AF92BF92CF92DF92EF92FF921C
:104CD0000F931F93CF93DF93C0919A0397E0892E90
:104CE00001E010E02CE0322E3EEF932E442443945A
:104CF00080919B038C1315C00E94FD25DF91CF91FD
:104D00001F910F91FF90EF90DF90CF90BF90AF90E9
:104D10009F908F907F906F905F904F903F900C94FA
:104D20003F06D0E0FE01EE0FFF1FEE56FC4F8081E4
:104D30009181889ED001899EB00D1124A65ABC4F46
:104D400014962C911497211157C05090F902EAEF54
:104D5000F2E030E020E0712C5D01251508F04AC03A
:104D6000E284F384D501CD90DC906FEF7FEF612C6E
:104D7000462D50E0DA01AA0FBB1FAC0DBD1D0D90F2
:104D8000BC91A02D109731F0EA16FB0609F4BA0188
:104D90006394EECF6F3F7607A1F1D80102C0AA0F4E
:104DA000BB1F6A95E2F77A2AB80102C0660F771F27
:104DB0006A94E2F7AB014150510974161506F9F4F3
:104DC000329EF001339EF00D1124E650FD4F889E77
:104DD000D001899EB00D1124A65ABC4F12962D9178
:104DE0003C911397378326839082918291878087A5
:104DF00015964C920E9411062196C37079CF1482A9
:104E000013822F5F3F4F3C96A8CF2F923F924F9235
:104E10005F926F927F928F929F92AF92BF92CF924A
:104E2000DF92EF92FF920F931F93CF93DF93CDB753
:104E3000DEB769970FB6F894DEBF0FBECDBF942FD3
:104E4000498B252F5A8B6B8B7C8B8D8B4C895D8985
:104E5000622F892F0E940606811109C0809181016D
:104E600090918201019690938201809381018B89B8
:104E7000811110929D041D861E861F86188A85E06A
:104E8000FE017196DE01199601900D928A95E1F767
:104E90008091F90182FD1EC08091A0039091A10331
:104EA000892BC1F00E94C2052091E0013091E101FF
:104EB000821B930B2091A0033091A10382179307CB
:104EC00020F08091E20182FFF5C10E94F10A811178
:104ED0000E94B70A4C855D856A8589850E94060611
:104EE000811111C061E0CE0109960E940A0E6C0189
:104EF0008B8527EFC2162CE5D20681F4882321F199
:104F000081E080931A0129853A854B855C856D8502
:104F10007E858F8598890E948625C5C038EFC31687
:104F20003CE5D30629F4882379F00E944D26EBCF87
:104F300049EFC4164CE5D40639F4882329F0809152
:104F40001A018111F2CFDCCF0AE513E0512CB12C0C
:104F5000A12C22242394312C2EEF422EF8014081E3
:104F6000518188248A94982C20E0822F90E0FC01C3
:104F7000EE0FFF1FE40FF51F608171816115710550
:104F800031F0C616D70609F44C012F5FEECFF12C95
:104F9000FFEF8F169F0609F448C0F8014481F09096
:104FA0001A018F2D411180E0F82FF170FF2EF801CA
:104FB000E58086819B85992309F40CC1FF2009F4C3
:104FC00009C16090B4037090B503E11012C0A10153
:104FD00001C0440F8A94EAF7842B86838091F602FD
:104FE0009091F7028615970520F47092F70260926F
:104FF000F602C10102C0880F991F2A95E2F70197B6
:10500000F80126812817190681F480919C0390915C
:105010009D03009709F460C00E94B30568167906E5
:1050200008F05AC021E0F80124835F28FFEFAF1A8F
:10503000BF0A095F1F4F28E0A216B10409F08ECF06
:105040008B85882309F421C1552009F41EC10E94D3
:10505000C20590939D0380939C038091F902883050
:1050600010F591E0980F9093F90298E0FE013996BF
:10507000DE01119601900D929A95E1F73CE0839F35
:10508000C001112486509D4F28E0FE013196DC01BD
:1050900001900D922A95E1F72FEF3FEFFC01318748
:1050A0002087D386C28669960FB6F894DEBF0FBEFE
:1050B000CDBFDF91CF911F910F91FF90EF90DF90C7
:1050C000CF90BF90AF909F908F907F906F905F90A8
:1050D0004F903F902F90089580919A0350919B0399
:1050E000982FF0E0E0E0851314C090939A03E01746
:1050F000F10709F49ACF90E0FC01EE0FFF1FEE5686
:10510000FC4FB182A08201968370992780939B0304
:105110008CCF682E712CF301EE0FFF1FEE56FC4F63
:105120002081318147E0429FD001439FB00D11247F
:10513000A65ABC4F6D917C911197798F688F40E092
:1051400020E030E0E32FF0E0EE0FFF1F688D798D57
:10515000E60FF71F8080918081149104E1F0F8013F
:105160000190F081E02DFF8BEE8B20E005C08616CC
:10517000970609F44F2D2F5FE22FF0E0EE0FFF1F8F
:105180006E897F89E60FF71F608171816115710556
:1051900071F73F5FD7CF4423D1F0F801231708F010
:1051A000FD0121E024830E171F0721F490939A0339
:1051B000F42E3BCF981305C0AE17BF0711F49F5FC5
:1051C000937093012F5F3F4F822F83708CCFF0E05D
:1051D000E0E0F7CF90E0E1101FC0B10102C0660F20
:1051E000771F2A95E2F79B01215031098217930717
:1051F00031F4442309F447C0C5010E941106C101DE
:1052000001C0880F8A94EAF7982F9095F80186815B
:1052100089238683FE2C09CF9C01082C02C035957A
:1052200027950A94E2F7A90141705527BC01615006
:10523000710986239723892B11F5452B01F1F8017C
:1052400082819381892BC1F01B821C821D821E8268
:1052500049824A820E94C2058160582F9D838C83B7
:10526000F801828193818F83988729813A814B81CC
:105270006D817E810E948625F8011582C0CFF22FB4
:10528000F170EF2EBCCFEF2CBACF90919A038091A2
:105290009B03981731F00E945B26552009F433CE0A
:1052A00002CF0E94FD2510929D0310929C030E9444
:1052B0003F06F3CF82E00E94C71307CECF93DF9360
:1052C00000D000D00F92CDB7DEB79093CE0280937E
:1052D000CD02811520E2920748F40F900F900F90B5
:1052E0000F900F90DF91CF910C9479178EEF8983F7
:1052F0008A831B820E94C2058160782F9D838C83E4
:1053000049815A816B818D810F900F900F900F9082
:105310000F90DF91CF910C9405270F931F93CF939C
:10532000DF938C01EB0161E772E08C2F0E94950FF7
:10533000892BA1F48091BC039091BD030E94AE0C17
:10534000DD27C759DD4F8881F8011082188283302C
:1053500009F148F4813059F0823081F0DF91CF912A
:105360001F910F9108958430D1F08530B9F7809165
:10537000710290917202009789F306C080917302C6
:1053800090917402009799F3DF91CF911F910F9143
:105390000C945E298091750290917602F3CF8091F2
:1053A000770290917802009779F7209171023091FD
:1053B0007202809173029091740221153105D9F225
:1053C000009711F7C901E0CFCF93DF9300D000D051
:1053D0000F92CDB7DEB79093CE028093CD028115A8
:1053E00020E2920748F40F900F900F900F900F90CB
:1053F000DF91CF910C9454198EEF89838A8381E0D9
:105400008B830E94C2058160782F9D838C834981A4
:105410005A816B818D810F900F900F900F900F909C
:10542000DF91CF910C940527CF93DF93EC010E947D
:10543000E4298091BC039091BD030E94AE0CCE0183
:10544000DF91CF910C945E290F931F93CF93DF933D
:105450008C01862F61E772E00E94950F892BC9F4B9
:10546000C0917102D0917202209799F0F801808169
:10547000833069F4CE010E94142ACE010E94142ABE
:10548000CE01DF91CF911F910F910C94142A84309B
:10549000B8F7DF91CF911F910F9108950F931F934C
:1054A000CF93DF938C01EB0161E772E08C2F0E94B8
:1054B000950F892B09F064C0FE01FF27D8018C915C
:1054C000E759FD4F8130D9F419969C91199799238A
:1054D00011F080830CC01A969C919923D1F382E03D
:1054E000808380917302909174020097D9F4809127
:1054F000710290917202009709F442C013C0823089
:10550000E9F519968C91199781112DC01A968C91F5
:1055100081110EC083E080838091750290917602A4
:10552000009719F1DF91CF911F910F910C94E4290D
:1055300084E080838091770290917802009791F7C0
:1055400080917102909172020097F9F00E94142AE2
:105550008091730290917402009721F780917102FB
:1055600090917202DFCF85E08083809171029091EB
:105570007202009729F00E94142AF0CF86E08083FF
:10558000DF91CF911F910F910895809173029091B7
:105590007402B1CF90E080E00E94B534893E9E4F06
:1055A00011F40C94180E80E008951F920F920FB61C
:1055B0000F9211242F933F934F935F936F937F9399
:1055C0008F939F93AF93BF93CF93DF93EF93FF930B
:1055D000D091E900DF708091EC00C82FC17080FD90
:1055E000C0E81092E9008091F000877F8093F0007E
:1055F00078940E9430141092E9008091F000886045
:105600008093F000CD2BCF70C093E900FF91EF9114
:10561000DF91CF91BF91AF919F918F917F916F91CA
:105620005F914F913F912F910F900FBE0F901F9060
:1056300018951F920F920FB60F9211242F933F933C
:105640004F935F936F937F938F939F93AF93BF938A
:10565000EF93FF938091E10082FF09C08091E20007
:1056600082FF05C08091E1008B7F8093E1008091F3
:10567000DA0080FF24C08091D80080FF20C0809194
:10568000DA008E7F8093DA008091D90080FF9DC080
:1056900080E189BD82E189BD09B400FEFDCF81E0D2
:1056A00080939B0480918504811109C00E94FD03B1
:1056B0000E94F0048091E20084608093E200809177
:1056C000E10080FF17C08091E20080FF13C080914D
:1056D000E2008E7F8093E2008091E20080618093FF
:1056E000E2008091D80080628093D80019BC85E0E8
:1056F00080939B048091E10084FF2BC08091E200A5
:1057000084FF27C080E189BD82E189BD89B5982FDA
:10571000917080FFFBCF8091D8008F7D8093D8005F
:105720008091E1008F7E8093E1008091E2008F7E86
:105730008093E2008091E20081608093E20080919A
:105740009204882309F447C084E080939B048091ED
:105750009B048091E10083FF27C08091E20083FFDA
:1057600023C08091E100877F8093E10082E08093F5
:105770009B04109292048091E1008E7F8093E1005F
:105780008091E2008E7F8093E2008091E200806150
:105790008093E20042E060E080E00E94BE048091DD
:1057A000F00088608093F000FF91EF91BF91AF917E
:1057B0009F918F917F916F915F914F913F912F9129
:1057C0000F900FBE0F901F90189519BC10929B045C
:1057D0001092850474CF8091E30087FD93E090934D
:1057E0009B04B5CF78941F921FB61F9211248F93FC
:1057F0009F93AF93BF9380917E0490917F04A0917B
:105800008004B09181040196A11DB11D80937E0496
:1058100090937F04A0938004B0938104BF91AF91D3
:105820009F918F911F901FBE1F9018951F921FB6BA
:105830001F9211248F939F93AF93BF9380917D0408
:10584000811113C080917E0490917F04A091800407
:10585000B09181044196A11DB11D80937E04909367
:105860007F04A0938004B0938104BF91AF919F9176
:105870008F911F901FBE1F901895CDB7DEB7E5978B
:105880000FB6F894DEBF0FBECDBF84B7877F84BF4D
:105890000FB6F894A89580916000886180936000AD
:1058A000109260000FBE80E890E00FB6F8948093ED
:1058B0006100909361000FBE85B7806885BF85B792
:1058C000806885BF83ED98E090937701809376019F
:1058D0000E94A90F0E94FF0F0E94270D0E94FD0346
:1058E0000E94F0048091E20084608093E20078944A
:1058F00080919B048823A1F01091E9001F70909182
:10590000EC00892F817090FD80E8182B1092E9003F
:105910008091E80083FD0E9430141F701093E9000D
:1059200082E084BD93E095BD9AEF97BD80936E00B1
:105930000E94180E811102C00E94860F05E511E039
:105940003BE5E32E31E0F32ED8018D918D018F3FA1
:1059500011F00E94D508E016F106B1F70BE511E051
:1059600022E6E22E21E0F22EF80181918F018F3F95
:1059700011F00E94D508E016F106B1F786E0EFE0DD
:10598000F2E0DF01282F1D922A95E9F7E2EFF1E01E
:10599000DF011D928A95E9F70E94CA2A811102C08F
:1059A0000E948A1182E090E00E94A7348093FB015C
:1059B0000E94310E9093F9018093F8010E94F41136
:1059C000EFE3FCE93197F1F700C000000E94F41109
:1059D00080910F0280FF08C06FEF7FEF90E080E0C2
:1059E0000E94D9340E948A0C83E090E00E94A73480
:1059F0000E9421148091FA01811133C00E94CA2AA9
:105A0000811104C00E948A110E947B1188E090E0FD
:105A10000E94AF3460939E0470939F048093A0040F
:105A20009093A1046E7F71F40E947B1188E090E056
:105A30000E94AF3460939E0470939F048093A004EF
:105A40009093A1040E9484061092290280919E04E2
:105A500080FF04C060E086950E94171181E080936A
:105A6000FA0180E091E090937A04809379048FE0CA
:105A700092E0F6E0F80FFDAB8E010F5F1F4F8091B3
:105A80009B04853079F4B0E4DB2E80E1E82E92E1CE
:105A9000F92E80919B04853009F418C10E942514C9
:105AA0000E94FA050E94F411882359F08FB7F894E8
:105AB00040917E0450917F04609180047091810434
:105AC0008FBFAFE0B2E0ECEFF1E0F12CE12C3E2D26
:105AD0008D912191281709F435C190E0DD24D394EC
